:020000040800F2
:10500000005000203D900008797F00087B7F000859
:105010007D7F00087F7F0008817F0008000000007E
:10502000000000000000000000000000837F000876
:10503000857F000800000000877F0008897F000846
:105040008D9000088D9000088D900008A5810008C3
:105050008D9000088D900008DD7F0008FD7F00081E
:105060001D80000851800008718000088D900008A4
:105070008D9000088D9000088D9000080182000836
:105080008D9000088D9000088D7F00088D9000089D
:10509000058200088D9000088D900008918000081E
:1050A0008D9000088D9000088D90000859810008AF
:1050B0008D9000088D9000088D900008AD7F00084D
:1050C000BD7F00088D9000088D900008CD7F0008FE
:1050D0008D9000088D9000089D7F00088D9000083D
:1050E000E1800008C18100088D90000800000000E8
:1050F00000000000000000000000000000000000B0
:0C51000000000000000000005FF808F153
:1051100081F0004102E000BF83F0004330B54FEA68
:1051200041044FEA430594EA050F08BF90EA020FD5
:105130001FBF54EA000C55EA020C7FEA645C7FEA68
:10514000655C00F0E2804FEA5454D4EB5555B8BF8B
:105150006D420CDD2C4480EA020281EA030382EAFC
:10516000000083EA010180EA020281EA0303362D8E
:1051700088BF30BD11F0004F4FEA01314FF4801C61
:105180004CEA113102D0404261EB410113F0004F73
:105190004FEA03334CEA133302D0524263EB43032A
:1051A00094EA050F00F0A780A4F10104D5F1200EC8
:1051B0000DDB02FA0EFC22FA05F2801841F1000123
:1051C00003FA0EF2801843FA05F359410EE0A5F1F7
:1051D00020050EF1200E012A03FA0EFC28BF4CF028
:1051E000020C43FA05F3C01851EBE37101F00045DE
:1051F00007D54FF0000EDCF1000C7EEB00006EEBEB
:105200000101B1F5801F1BD3B1F5001F0CD3490874
:105210005FEA30004FEA3C0C04F101044FEA4452CB
:1052200012F5800F80F09A80BCF1004F08BF5FEA52
:10523000500C50F1000041EB045141EA050130BD32
:105240005FEA4C0C404141EB010111F4801FA4F1D5
:105250000104E9D191F0000F04BF01460020B1FA2A
:1052600081F308BF2033A3F10B03B3F120020CDA62
:105270000C3208DD02F1140CC2F10C0201FA0CF040
:1052800021FA02F10CE002F11402D8BFC2F1200CA5
:1052900001FA02F120FA0CFCDCBF41EA0C0190405B
:1052A000E41AA2BF01EB0451294330BD6FEA0404A4
:1052B0001F3C1CDA0C340EDC04F11404C4F120028F
:1052C00020FA04F001FA02F340EA030021FA04F3A1
:1052D00045EA030130BDC4F10C04C4F1200220FAF8
:1052E00002F001FA04F340EA0300294630BD21FA36
:1052F00004F0294630BD94F0000F83F4801306BFFC
:1053000081F480110134013D4EE77FEA645C18BFEF
:105310007FEA655C29D094EA050F08BF90EA020F86
:1053200005D054EA000C04BF1946104630BD91EA7E
:10533000030F1EBF0021002030BD5FEA545C05D181
:105340004000494128BF41F0004130BD14F58004C0
:105350003CBF01F5801130BD01F0004545F0FE4134
:1053600041F470014FF0000030BD7FEA645C1ABF69
:10537000194610467FEA655C1CBF0B46024650EAA0
:10538000013406BF52EA033591EA030F41F40021CC
:1053900030BD00BF90F0000F04BF0021704730B552
:1053A0004FF4806404F132044FF000054FF0000127
:1053B00050E700BF90F0000F04BF0021704730B5E8
:1053C0004FF4806404F1320410F0004548BF4042BD
:1053D0004FF000013EE700BF42004FEAE2014FEA12
:1053E00031014FEA02701FBF12F07F4393F07F4FED
:1053F00081F06051704792F0000F14BF93F07F4F1F
:10540000704730B54FF4607401F0004521F0004161
:1054100020E700BF50EA010208BF704730B54FF0E7
:1054200000050AE050EA010208BF704730B511F0EC
:10543000004502D5404261EB41014FF4806404F124
:1054400032045FEA915C3FF4DCAE4FF003025FEAA6
:10545000DC0C18BF03325FEADC0C18BF033202EB2E
:10546000DC02C2F1200300FA03FC20FA02F001FA88
:1054700003FE40EA0E0021FA02F11444C1E600BF27
:105480004FEA4102B2F1E04324BFB3F5001CDCF166
:10549000FE5C0DD901F0004C4FEAC0024CEA50709E
:1054A000B2F1004F40EB830008BF20F001007047CD
:1054B00011F0804F21D113F13872BCBF01F00040D0
:1054C000704741F480114FEA5252C2F11802C2F102
:1054D000200C10FA0CF320FA02F018BF40F0010083
:1054E0004FEAC1234FEAD32303FA0CFC40EA0C0035
:1054F00023FA02F34FEA4303CCE77FEA625307D172
:1055000050EA01331EBF4FF0FE4040F440007047A8
:1055100001F0004040F0FE4040F40000704700BF42
:1055200080F0004002E000BF81F0004142001FBF58
:105530005FEA410392EA030F7FEA226C7FEA236C61
:105540006AD04FEA1262D2EB1363C1BFD218414056
:1055500048404140B8BF5B42192B88BF704710F0EC
:10556000004F40F4000020F07F4018BF404211F08F
:10557000004F41F4000121F07F4118BF494292EAF7
:10558000030F3FD0A2F1010241FA03FC10EB0C0023
:10559000C3F1200301FA03F100F0004302D54942B0
:1055A00060EB4000B0F5000F13D3B0F1807F06D35D
:1055B00040084FEA310102F10102FE2A51D2B1F155
:1055C000004F40EBC25008BF20F0010040EA03004A
:1055D0007047490040EB000010F4000FA2F10102F7
:1055E000EDD1B0FA80FCACF1080CB2EB0C0200FA81
:1055F0000CF0AABF00EBC25052421843BCBFD040CF
:105600001843704792F0000F81F4000106BF80F448
:1056100000000132013BB5E74FEA41037FEA226C0B
:1056200018BF7FEA236C21D092EA030F04D092F0D6
:10563000000F08BF0846704790EA010F1CBF00200A
:10564000704712F07F4F04D1400028BF40F0004067
:10565000704712F100723CBF00F50000704700F087
:10566000004343F0FE4040F4000070477FEA2262AE
:1056700016BF08467FEA23630146420206BF5FEA7F
:10568000412390EA010F40F4800070474FF000037F
:1056900004E000BF10F0004348BF40425FEA000C46
:1056A00008BF704743F0964301464FF000001CE0EE
:1056B00050EA010208BF70474FF000030AE000BF44
:1056C00050EA010208BF704711F0004302D5404282
:1056D00061EB41015FEA010C02BF844601460020F4
:1056E00043F0B64308BFA3F18053A3F50003BCFA0F
:1056F0008CF2083AA3EBC25310DB01FA02FC6344BC
:1057000000FA02FCC2F12002BCF1004F20FA02F2C2
:1057100043EB020008BF20F00100704702F12002B5
:1057200001FA02FCC2F1200250EA4C0021FA02F216
:1057300043EB020008BF20EADC7070474FF0FF0C1B
:105740001CEAD0521EBF1CEAD15392EA0C0F93EA16
:105750000C0F6FD01A4480EA010C400218BF5FEAB8
:1057600041211ED04FF0006343EA501043EA51112B
:10577000A0FB01310CF00040B1F5000F3EBF490025
:1057800041EAD3715B0040EA010062F17F02FD2A29
:105790001DD8B3F1004F40EBC25008BF20F001000C
:1057A000704790F0000F0CF0004C08BF49024CEA23
:1057B000502040EA51207F3AC2BFD2F1FF0340EAB5
:1057C000C250704740F400004FF00003013A5DDC26
:1057D00012F1190FDCBF00F000407047C2F1000267
:1057E000410021FA02F1C2F1200200FA02FC5FEA54
:1057F000310040F1000053EA4C0308BF20EADC709E
:10580000704792F0000F00F0004C02BF400010F40F
:10581000000F013AF9D040EA0C0093F0000F01F0BC
:10582000004C02BF490011F4000F013BF9D041EADE
:105830000C018FE70CEAD15392EA0C0F18BF93EAE0
:105840000C0F0AD030F0004C18BF31F0004CD8D10A
:1058500080EA010000F00040704790F0000F17BF91
:1058600090F0004F084691F0000F91F0004F14D0D7
:1058700092EA0C0F01D142020FD193EA0C0F03D12F
:105880004B0218BF084608D180EA010000F0004032
:1058900040F0FE4040F40000704740F0FE4040F40D
:1058A000400070474FF0FF0C1CEAD0521EBF1CEAAC
:1058B000D15392EA0C0F93EA0C0F69D0A2EB0302CA
:1058C00080EA010C49024FEA402037D04FF0805364
:1058D00043EA111143EA10130CF000408B4238BF29
:1058E0005B0042F17D024FF4000C8B4224BF5B1A37
:1058F00040EA0C00B3EB510F24BFA3EB510340EA85
:105900005C00B3EB910F24BFA3EB910340EA9C0032
:10591000B3EBD10F24BFA3EBD10340EADC001B01A2
:1059200018BF5FEA1C1CE0D1FD2A3FF650AF8B4246
:1059300040EBC25008BF20F0010070470CF0004C53
:105940004CEA50207F32C2BFD2F1FF0340EAC2507E
:10595000704740F400004FF00003013A37E792F03F
:10596000000F00F0004C02BF400010F4000F013A9D
:10597000F9D040EA0C0093F0000F01F0004C02BF98
:10598000490011F4000F013BF9D041EA0C0195E701
:105990000CEAD15392EA0C0F08D142027FF47DAF9A
:1059A00093EA0C0F7FF470AF084676E793EA0C0F8A
:1059B00004D14B023FF44CAF08466EE730F0004C88
:1059C00018BF31F0004CCAD130F000427FF45CAF18
:1059D00031F000437FF43CAF5FE700BF4FEA400285
:1059E000B2F1FE4F0FD34FF09E03B3EB12620DD90D
:1059F0004FEA002343F0004310F0004F23FA02F077
:105A000018BF404270474FF00000704712F1610F1D
:105A100001D1420205D110F0004008BF6FF00040F4
:105A200070474FF000007047844641EA000313F0CE
:105A3000030349D1403A23D30B6803604B684360AA
:105A40008B688360CB68C3600B6903614B694361FA
:105A50008B698361CB69C3610B6A03624B6A4362E2
:105A60008B6A8362CB6AC3620B6B03634B6B4363CA
:105A70008B6B8363CB6BC36340304031403ADBD2E6
:105A800030320BD30B6803604B6843608B688360D4
:105A9000CB68C36010301031103AF3D20C3205D30A
:105AA00051F8043B40F8043B043AF9D2043208D0E0
:105AB000D2071CBF11F8013B00F8013B01D30B8852
:105AC00003806046704700BF082A13D38B07B1D00C
:105AD00010F00303AED0C3F10403D21ADB071CBFDE
:105AE00011F8013B00F8013BA4D331F8023B20F848
:105AF000023B9FE7043AD9D3013A11F8013B00F881
:105B0000013BF9D20B7803704B7843708B7883702C
:105B10006046704740EA010C1CF0070F27D1BDF129
:105B2000100DCDE90245CDE900676FF000064FF09A
:105B3000000700BFF0E80223F1E80245A242A2F10B
:105B4000013C2CEA020C0CF0803C08BFBCF1000FB9
:105B500040F0E580AB42A3F1013C2CEA030C0CF0D1
:105B6000803C08BFBCF1000F40F0D680E2E710F0A7
:105B7000030C21D020F0030050F8042B5FEACC7C0A
:105B800008D00FD211F801CB5FFA92F3B3EB0C0CF3
:105B900010D17BB111F801CB5FFAA2F3B3EB0C0C7F
:105BA00008D13BB111F801CB5FFAB2F3B3EB0C0CA7
:105BB00000D10BB960467047BDF1100DCDE902452B
:105BC000CDE900676FF000064FF0000711F0030CFD
:105BD00033D110F0040F0FD050F8042B51F8044BC0
:105BE000A242A2F1013C2CEA020C0CF0803C08BF5E
:105BF000BCF1000F40F0938011F0040F99D051F8E0
:105C0000045B00BFF0E80223AA42A2F1013C2CEAA7
:105C1000020C0CF0803C08BFBCF1000F79D1F1E818
:105C20000245A342A3F1013C2CEA030C0CF0803C9A
:105C300008BFBCF1000F69D1E4E721F00301BCF11A
:105C4000020F20D03FDA51F8045B00BF50F8043B4C
:105C50004FEA1525A3F1013C2CEA030C0CF0803C23
:105C6000B7EB0C2F03EA162208BFAA4251D151F814
:105C7000045BBCF1000F82EA03034FEA056208BF30
:105C8000934240D1E2E751F8045B00BF50F8043B77
:105C90004FEA1545A3F1013C2CEA030C0CF0803CC3
:105CA000B7EB0C4F03EA164208BFAA4231D151F8B4
:105CB000045BBCF1000F82EA03034FEA054208BF10
:105CC000934220D1E2E751F8045B00BF50F8043B57
:105CD0004FEA1565A3F1013C2CEA030C0CF0803C63
:105CE000B7EB0C6F03EA166208BFAA4211D151F854
:105CF000045BBCF1000F82EA03034FEA052208BFF0
:105D0000934200D1E2E719BA12BA0AE019BA22BAEC
:105D100007E011BA2ABA04E019BA2ABA01E011BAA6
:105D200022BA9CFA8CF0DDE90067DDE902451DF13D
:105D3000100D38B1B0FA80F0C0F1180021FA00F16E
:105D400022FA00F20120914298BF8041704700BFC3
:105D500010B5084C204602F0DFFE04F11C0120467D
:105D600002F04EFF0449FFF7E9FCFFF737FE6062DF
:105D700010BD00BF500B00200000C842F0B501214B
:105D800085B0054601F0DCFCA0F13006072E044684
:105D900025D81649684601F059FC2846694601F0A5
:105DA000BDFC0746684601F00FFC0FB1B4B20EE02F
:105DB0000F49684601F04AFC2846694601F0AEFCEE
:105DC0000546684601F000FC65B1263CA4B22046B9
:105DD000032100F0F3FF204601F0ACF804E04FF09F
:105DE000FF3001E06FF0010005B0F0BD7C5E0108FE
:105DF0007E5E0108F0B5012185B0044601F0A0FCEB
:105E0000A0F13006072E49D8684621460322072311
:105E100001F098FC6846264901F056FC05466846A4
:105E200001F0D2FB7DB9684621460322062301F02A
:105E300089FC68461F4901F047FC0746684601F0A7
:105E4000C3FB0FB92DE001251B49684601F0FEFB9D
:105E50002046694601F062FC0746684601F0B4FB43
:105E60001FB1B6B23046002110E01449684601F077
:105E7000EDFB2046694601F051FC0446684601F0FE
:105E8000A3FB8CB10A36B6B23046394600F096FF15
:105E90003046294601F00CF8012007E04FF0FF30B2
:105EA00004E06FF0010001E06FF0020005B0F0BD0A
:105EB000805E0108855E01087C5E01087E5E010847
:105EC000F0B5012185B0054601F03AFCA0F130069D
:105ED000072E044625D81649684601F0B7FB284628
:105EE000694601F01BFC0746684601F06DFB0FB1E7
:105EF000B4B20EE00F49684601F0A8FB2846694697
:105F000001F00CFC0546684601F05EFB65B1263CDD
:105F1000A4B22046012100F051FF204601F07CF898
:105F200004E04FF0FF3001E06FF0010005B0F0BD7C
:105F30007C5E01087E5E0108F0B5012189B004464F
:105F400001F0FEFBA0F13007072F06463ED80322E2
:105F50006846214601F01CFC1F4904A801F076FBAD
:105F6000204604A901F0DAFB054604A801F02CFB49
:105F700055B1BFB20021384600F020FF684601F05D
:105F80000EFCC1B2384617E0144904A801F05EFBCC
:105F9000204604A901F0C2FB044604A801F014FB4A
:105FA00074B1263EB6B22946304600F007FF684677
:105FB00001F0F5FBC1B2304601F088F8012401E0A0
:105FC0006FF00104684601F0FFFA01E04FF0FF3482
:105FD000204609B0F0BD00BF7C5E01087E5E01086E
:105FE00038B5054600242B5D0F2B03D8064807491A
:105FF00001F05EFA295D04481022013401F0A1FA93
:10600000082CF0D138BD00BF181A0020165F010817
:1060100008B52E484FF4165101F054FC2C492B487A
:1060200001F05BFA2B49294801F042FA2A4802F0B4
:1060300007FD2A49254801F03BFA274802F000FCF9
:106040000A220146214801F07CFA25491F4801F047
:1060500044FA1E48234901F02BFA1F4802F0E4FDE0
:1060600010B11A48204901E01848204901F035FADA
:106070001948002200F11C0102F0EFFB18B9134887
:106080001B4901F02AFA1B49104801F011FA1A487D
:10609000FFF7A6FF0D4801F014FA0F48092200F19E
:1060A0001C0102F08BFC1549084801F001FA0A486E
:1060B00000F11C0102F0A4FC0A220146034801F091
:1060C00040FABDE80840014801F0FBB9181A002069
:1060D000895E0108B45E0108500B0020C85E01080B
:1060E000CF5E0108D95E0108ED5E0108F05E01088F
:1060F000F45E0108185F01086C0B00202B5F01089B
:1061000008B511481149042200F038FC0222104859
:10611000104900F033FC1048104900F06DFC1048A5
:10612000104900F069FC1048104900F065FC104867
:10613000104900F061FC1048104900F05DFCBDE81A
:106140000840FFF765BF00BF415F01080000002065
:10615000495F0108740B00204E5F01087D5D000857
:106160005A5F0108F55D0008675F0108C15E00081D
:10617000725F0108395F00087E5F0108515D000809
:106180007047000037B50B4C00210A460B460091C2
:1061900004F1300504F1280001F042F928460321FA
:1061A00002F052FD2046294603B0BDE8304002F01F
:1061B00039BB00BF500B0020013101EB420291427C
:1061C0000BD0030F092B94BF3033373301F8013C58
:1061D0000023000101F8023BF1E7704710B54FF0D2
:1061E00000604FF4A04106F0E1F80124284B294853
:1061F00021461C7006F0BAFB05F04EFA04F02EFFA3
:106200002146402006F074FC6FF07F4005F09EF8B8
:10621000E72005F017F9204B1C7004F05FFF7D208C
:1062200006F096FC18B11D4B1C7006F0A5FC40F65C
:10623000B83004F0BCFF05F0FFFC05F091FE1848F3
:1062400001F0B6FC174B01221A7001F03DFD164B10
:106250001B781BB9154B1B78002BF6D0144B1B7801
:10626000002BF2D10D4B1B78002BEED10F4C237875
:10627000012B01D00F4B33B90F4B0BB1FFF780FF50
:1062800000F082FDE1E7FFF73BFF01232370F3E716
:10629000CE1A002000043000431A0020842400207D
:1062A0005D6B0008501A0020411A0020900B00205E
:1062B000421A002001610008816100085C4A2DE952
:1062C000F04153681646013353605A4B196811B1B7
:1062D0001A68013A1A60584B584D1B782BB1584B2D
:1062E0001B78EBB1574B4BBB1AE0574C236813B1EB
:1062F0002368013B13E02B7893B9544B1B787BB98F
:10630000534B1B7863B9DFF86C81524F98F800301B
:10631000CBB1E72005F00AF93B7893B11423236051
:106320002B784D4C03F0FF07002B34D1384605F095
:10633000FDF940F6B73398421CD82CE000F056FC2B
:10634000EEE70123EBE73B7853B14FF6FF7004F023
:10635000FDFFE72005F076F8012388F80030DFE73D
:10636000E72005F09DF83D4B1B780BB13223D6E7B3
:106370006423D4E7384605F0E1F92378C3B9384BF4
:106380001B782BB1354B334A1B7812781A424CD00C
:1063900001232B700CE0002005F0C8F941F65733BB
:1063A000984205D9002005F0C9F92E4B01221A7038
:1063B000237853BB254B1B7803F0FF02ABB1B168C8
:1063C00041F2873291421A4B0BD9BFF34F8F264AC5
:1063D000264BD16801F4E0610B43D360BFF34F8FCC
:1063E000FEE79A6801329A600FE01A4B1B7863B19E
:1063F000F06847F22F5188420D4B03D9DA6000F064
:1064000085FC02E0DA680132DA60194B1A68B2F5ED
:106410007A7F05D3BDE8F04100221A6006F0FEBA8B
:106420001A6801321A60BDE8F08100F06FFCAFE736
:10643000900B00208C240020B81A00203E1A002067
:10644000800F0020ED6B000888240020421A0020F5
:10645000441A0020411A00204F1A0020401A002040
:106460003F1A0020461A002000ED00E00400FA0563
:1064700090240020431A002008B5094B186005F04D
:1064800081FB002005F0CAFB064804F00FFE05F072
:1064900091FB05F0AFFBBDE8084007F0F9B900BF7C
:1064A00008020020A0860100074B1B68052B08D1BD
:1064B000064B1A7C012A04D1987C1B7DC01AC0B2FD
:1064C00070470020704700BFE81A0020900B0020A2
:1064D0000D4B10B51B68052B13D10C4C237C012BE5
:1064E0000FD1628AA38AD31A012B04D1002303207F
:1064F000237407F024FBA38A5A1CA2821C44A07DAB
:1065000010BD4FF0FF3010BDE81A0020900B0020A6
:10651000084B1B68052B0CD1074B9A6D991801325B
:10652000B2F5807F9A6508BF002281F85C0008BF41
:106530009A657047E81A0020900B0020F8B5234BAD
:1065400093F85C21012A3FD0D3F86021996DB2F510
:10655000807F04BF0022C3F86021D3F860411B4A4A
:106560008C4203D1002382F85C31F8BD8CBFC4F5A6
:106570008071C4EB0101C2F86411D3F86461134D5A
:10658000402EA2B207D94034403EC5F86041C5F85C
:106590006461402706E034440021B7B2C5F8604189
:1065A000C5F864110A4801241044C0213A4683F812
:1065B0005C4107F03FFA2046394607F043FB20468E
:1065C000BDE8F84007F0A8BAF8BD00BF900B002066
:1065D000EC0B0020094B10B593E8140008331B683E
:1065E000D0180AD006490822FFF7E6FD20460549E3
:1065F0000422BDE81040FFF7DFBD10BDE8F7FF1F24
:10660000B7010020C701002038B504460D46AC4252
:1066100003D254F8043B9847F9E738BD08B507485A
:106620000749FFF7F1FF07480749FFF7EDFFBDE80E
:10663000084006480649FFF7E7BF00BFFC620108B3
:10664000FC620108FC6201084C6301084C6301080C
:106650004C630108FEE70000054A08B513681844BA
:106660001060044A904201D90BF082FE184608BD22
:1066700040000020004800204FF0FF30704701200C
:1066800070470000014B1868704700BFF80C0020ED
:10669000064B0246582000FB013101F1080303CBF1
:1066A0001060516018689060704700BFF80C0020BF
:1066B000014BD3F8BC017047F80C0020064B024692
:1066C000142000FB013101F5E27303CB106051602F
:1066D00018689060704700BFF80C002038B5054678
:1066E000064C28B104F0D4FE012384F8883238BD6A
:1066F00004F07CFE84F8885238BD00BFF80C0020FE
:106700000E4B2DE9F041D3F8BC7180460024BC4209
:1067100011DA14256543094E414606F5E270284416
:106720000C220CF0D7FD20B93544D5F8C001BDE8E6
:10673000F0810134EBE70020BDE8F081F80C002087
:106740002DE9F041274B86B01B7880460F46002B81
:1067500042D1254B1B7803F0FF04002B3CD1234D85
:1067600006AAD5F88C020121460902EB860600F044
:106770001F0291408DF80C408DF80D408DF80E40B1
:106780008DF80F4056F80C2C01300A4346F80C2CBB
:1067900041F28832059204AA0092214603AA2346B8
:1067A000049403F0DFFD002818DDD5F88C3206AA2A
:1067B000590902EB810151F80C5C03F01F021541ED
:1067C00015F001000AD01846414623463A4603F028
:1067D000DBFE074B1C6001E04FF0FF3006B0BDE868
:1067E000F08100BF4E1A00204F1A0020F80C002044
:1067F0009C0B00202DE9F041274B86B01B7880468A
:106800000F46002B42D1254B1B7803F0FF04002BD1
:106810003CD1234D06AAD5F88C020121460902EB92
:10682000860600F01F0291408DF80C408DF80D4057
:106830008DF80E408DF80F4056F80C2C01300A43AD
:1068400046F80C2C41F28832059204AA009203A962
:1068500022462346049403F085FD002818DDD5F870
:106860008C3206AA590902EB810151F80C5C03F045
:106870001F02154115F001000AD018464146234673
:106880003A4603F007FE074B1C6001E04FF0FF3073
:1068900006B0BDE8F08100BF4E1A00204F1A00205C
:1068A000F80C00209C0B0020044B01221A70044BB2
:1068B00000224FF4C0201A6005F022BA421A0020CC
:1068C000980B0020034A00231370034A136005F05D
:1068D0007BBA00BF421A0020980B0020024B002216
:1068E0001A6005F033BA00BF980B00202DE9F0477D
:1068F00088B0804668460D4600F0A8FE1E4B002476
:10690000D3F800A054452DDA55B3582666431A4FE4
:10691000414607F1080030440C2207F104090CF04D
:10692000D9FCE8B928460CF0A5FC06F11003402874
:1069300034BF02464022294609EB0300FFF774F8F2
:106940003E44012386F85830694604A8746800F074
:106950009FFE04A8A047044604A800F035FE03E00B
:106960000134CFE74FF0FF34684600F02DFE20469B
:1069700008B0BDE8F08700BFF80C00202DE9F04713
:1069800004469246884681B378B3194FD7F8BC5174
:106990000A2D2AD007F5E2764FF00009A9450DDA55
:1069A00056F8043C434505D1304621460C220CF0F4
:1069B00091FCD0B109F101091436EFE714236B43C0
:1069C0000C48FE1818440021C6F8C08186F8D0A1F2
:1069D0000C220CF03FF92068616806F5E27303C3EE
:1069E000A06801351860C7F8BC51BDE8F08700BF4A
:1069F000F80C0020BC0E00202DE9F84F0446894613
:106A000000293DD000283BD01E4D2E68052E37D0E2
:106A100005F108074FF0000805F1040AB0450DDA4A
:106A200057F8043C4B4505D1384621460C220CF062
:106A300051FC28B308F101085837EFE74FF0580828
:106A400008FB06F805EB080708F1100000214022BA
:106A5000C7F8049050440CF0FDF80AEB0800002140
:106A600004300C220CF0F6F82068616807F1080386
:106A700003C3A06801361860002387F858302E60E1
:106A8000BDE8F88FF80C002030B51E48ADF5797DD3
:106A900007F065F9002832D11B4B15A804931B4B56
:106AA0005FAD05931A4B039006931A4B0CAC0793FA
:106AB000194B02950893194B0993194B0A93194BDB
:106AC0000B93194B0C93194B0D93194B0E93194BB8
:106AD0000F93194B1093194B1193194B1293194B98
:106AE0001393194B149305F081F9284605F084F9A6
:106AF00000940448154902AA04AB07F037F90DF5D4
:106B0000797D30BD8410002041670008F5670008DA
:106B1000A9680008C568000829BE0008DD680008EB
:106B2000DD66000835720008856600089166000879
:106B3000ED680008B1660008BD6600086D6D0008CC
:106B40000167000805BE000819BE0008E8F7FF1F2E
:106B5000014807F00ABF00BF8410002030B50220B2
:106B60008DB00146112203F07BFB051E28DB07A830
:106B7000144907F011FA0223ADF80C3016238DF8F2
:106B80000E3033238DF80F30E0238DF810300023C2
:106B90008DF8113001238DF81230BB238DF813309E
:106BA000032403AB009310230193284607A9132263
:106BB000002303F0F3FC013CF3D1284603F07EFBF5
:106BC0000DB030BDE8F7FF1F10B5074CFFF75CFFB5
:106BD000204607F0C7F8204607F02DFC0446FFF7D3
:106BE000BDFF204610BD00BF8410002038B5114CF9
:106BF000D4F89C5B2DB1D4F89C3B013BC4F89C3B82
:106C000038BDD4F8A03B0C4A52F8230004F0C6FB70
:106C1000E72004F017FC6423084AC4F89C3BD4F82E
:106C2000A03B126801339342C4F8A03BA8BFC4F84C
:106C3000A05B38BDF80C0020B434010844000020EB
:106C400030B5022085B00121062203F009FB041EA5
:106C50001BDB0223ADF8003000238DF80230352312
:106C60008DF803306946082310228DF804308DF822
:106C700005308DF806308DF8073003F045FB0546EA
:106C8000204603F01BFB284601E04FF0FF3005B023
:106C900030BD000010B5054CD4F88C0203F00EFB9B
:106CA00018B94FF0FF33C4F88C3210BDF80C002037
:106CB00008B5FFF7EFFF01210220062203F0D0FA0A
:106CC00011490028C1F88C021BDB0223A1F8A43B68
:106CD000162381F8A63B332381F8A73B362381F89E
:106CE000A83BD02381F8A93BE52381F8AA3B0423E4
:106CF00081F8AB3B102201F6A431BDE8084003F057
:106D000003BB4FF0FF3008BDF80C0020044B0122FC
:106D100000215A801980D986024B1A70704700BF33
:106D2000181C00204E1A00200F4B2DE9F041D3F81B
:106D3000BC7180460024BC4211DA142565430A4E1A
:106D4000414606F5E27028440C220CF0C3FA20B943
:106D5000354495F8D001BDE8F0810134EBE74FF000
:106D6000FF30BDE8F08100BFF80C002008B5FFF748
:106D7000DBFF0138082803D8024B1844007F08BD08
:106D8000022008BDB4340108084B0022D3F8941245
:106D900003F526738A4208DA93F8500010B10020F8
:106DA00083F8500001325133F4E77047F80C0020AB
:106DB000014806F0BFBF00BF8410002014282DE951
:106DC000F34104460E4669D8FF2967D000F0D8FB8E
:106DD00020B1A4F10D039BB2022B5FD900F0A8FAF9
:106DE00008B1012C5AD900F039FD20B1A4F11203E9
:106DF0009BB2012B52D92B4D24012B192F59B3F8DB
:106E00000480294B9F4201D1042003E0274B9F427D
:106E100003D10820012105F077FEADF80480062E8D
:106E200038D8DFE806F0040D13191F2831001023AD
:106E30008DF8073003238DF806302C44002328E01A
:106E400004238DF807302C44012322E048238DF8D9
:106E500007302C4402231CE028238DF807302C44F3
:106E6000032316E018238DF8073003238DF806302E
:106E70002C4404230DE01C238DF8073003238DF8E8
:106E800006302C44052304E000238DF807302C4401
:106E90000623A373384601A905F010FD02B0BDE832
:106EA000F08100BF4800002000080140000C0140B4
:106EB0001428F8B505460F4638D81D4E040133197D
:106EC0009B7B5A1ED2B2022A30D9062B2ED0FF2B22
:106ED0002CD000F055FB28B1A5F10D039BB2022B7D
:106EE00000D8F8BD00F024FA10B1012D00D8F8BD8B
:106EF00000F0B4FC28B1A5F112039BB2012B00D81D
:106F0000F8BD33199B7B042B03D128460021FFF7E2
:106F100055FF012F04D13219335992881A61F8BDF7
:106F200027B93219335992885A61F8BDF8BD00BFAC
:106F300048000020142870B5044602D94FF0FF30F5
:106F400070BD184E050173199B7B013BDBB2FD2B15
:106F5000F4D800F015FB20B1A4F10D039BB2022B75
:106F6000ECD900F0E5F908B1012CE7D900F076FC86
:106F700020B1A4F112039BB2012BDFD973199B7BC3
:106F8000062B09D1074B93F850114B1EDBB2FD2B9A
:106F9000D4D82046FFF712FF73197059998805F06D
:106FA000DBFC70BD4800002010B54FF4004086B0F7
:106FB00005F076FD01214FF4007005F0A5FD1548A0
:106FC00005F0FEF9012400234FF46022114801A9C5
:106FD00001938DF808308DF80930039204938DF8F1
:106FE000144005F01BFA0B48214605F03BFA09480E
:106FF00005F041FA074805F043FA0028FAD10548A0
:1070000005F042FA034805F044FA0028FAD106B028
:1070100010BD00BF00240140092870B504469CBF84
:1070200000F10A04A4B200F0ABFA38B1A4F10D03E8
:107030009BB2022B02D84FF0FF3070BD00F078F900
:1070400000F00CFC20B1A4F112039BB2012BF2D989
:10705000142CF0D81B4D2601AB199A79FF2AEAD0DF
:1070600095F85111914206D09B7B2046062185F868
:107070005031FFF7A3FE95F85231012B05D1FFF7F0
:1070800093FF104B002283F852212E44B17995F8DA
:1070900051318B4208D0012200230B4805F006FA3B
:1070A000B279084B83F851210748012105F0F5F921
:1070B0000548022105F045FA0028F9D0024805F0FC
:1070C0003DFA70BD48000020002401402DE9F04346
:1070D000142889B00446884600F29E80504F06016D
:1070E000BB199B68002B00F0978000F049FA28B18B
:1070F000A4F10D039BB2022B40F28E8000F018F930
:1071000010B1012C40F2888000F0A8FB20B1A4F15E
:1071100012039BB2012B7FD9BD19AB7B13F0FB0F80
:107120007AD1404B01201A683F4B0146B2FBF3F97C
:107130004BF6803303FB08F8FF2398FBF3F805F0C8
:10714000E3FC20460421FFF739FEAB6809F1FF3963
:10715000B3F1804F1FFA89F91FFA88F802D1012094
:10716000014609E0314A934208BF022003D0304A69
:10717000934203D10420012105F0D2FCBC19002563
:107180004BF67F33A06801A9ADF80830ADF80A507E
:10719000ADF80650ADF8049005F096FD6023ADF80B
:1071A0001850A589ADF810300123ADF81230ADF8B4
:1071B000168045B9A06804A905F0D0FDA068082193
:1071C00005F00CFF1FE0042D08D1A06804A905F00C
:1071D00009FEA068082105F009FF14E0082D08D178
:1071E000A06804A905F042FEA068294605F008FF42
:1071F00009E00C2D07D1A06804A905F079FEA0686C
:10720000082105F005FF3E44B068012105F0DAFED3
:10721000B068012105F0B3FE09B0BDE8F08300BFFE
:1072200048000020F802002000366E0100040040F3
:1072300000080040014B1868704700BF940B002005
:1072400003F028BF03F032BF07B5002100910A46C2
:107250000B46034800F0E4F803B05DF804FB00BF00
:10726000B0180020024B18785B78C01A704700BF36
:10727000B8180020064B5A781978914204D9991809
:10728000013288785A7070474FF0FF30704700BF66
:10729000B8180020054B5A781978914202D9134446
:1072A000987870474FF0FF30704700BFB818002043
:1072B00070470000F8B5094B054693F82230164692
:1072C00053B10C468F18BC4206D02B6828461B6869
:1072D00014F8011B9847F6E73046F8BDB8180020AF
:1072E00010B50C4B012293F822408CB193F8234047
:1072F0001F2C02D94260002010BD93F824001C18F6
:1073000084F82510411CC9B283F8241083F8231097
:10731000104610BDB8180020002242604FF47A7267
:107320008260014A02607047E83401087047704784
:10733000014B93F859007047B818002013B5084C5A
:107340000021009104F164000A460B4600F068F841
:1073500004F16C0002B0BDE81040FFF7DDBF00BFD4
:10736000B8180020094B4022C3F880208022C3F8BF
:1073700080204FF40072C3F880204FF48062C3F87D
:1073800080204FF40002C3F88020704700E100E045
:10739000074B40221A6080221A604FF400721A6074
:1073A0004FF480621A604FF400021A60704700BF09
:1073B00000E100E008B5034B53F8203003B19847D3
:1073C00008BD00BF3419002007B5002100910A460E
:1073D0000B46034800F024F803B05DF804FB00BF3F
:1073E000741900202DE9F041002407460E46254679
:1073F0003B1919790A22304600F0A3F82E21804665
:10740000304600F059F801344044032C0544EFD1D4
:107410003046F9790A2200F094F82844BDE8F0815A
:1074200030B58371034D9DF80C30056001714271D8
:10743000C37130BD08350108044B054A1A600022AB
:107440001A715A719A71DA71704700BF7C19002065
:107450000835010807B5002100910A460B4603488C
:10746000FFF7DEFF03B05DF804FB00BF84190020C6
:10747000F8B506460C468F180025BC4207D0336885
:1074800030461B6814F8011B98470544F5E7284669
:10749000F8BD38B505460C46084641B10BF0EAFE8A
:1074A0002B6802465B6828462146984738BD38BDA0
:1074B00008B5FFF7EEFF08BD08B503681B689847DD
:1074C00008BD38B50D210546FFF7F6FF0A21044631
:1074D0002846FFF7F1FF204438BD38B50446FFF7D2
:1074E000D8FF05462046FFF7ECFF284438BD30B5ED
:1074F00000238BB08DF82430012A98BF0A220DF1A9
:107500002304B1FBF2F303FB1211CDB2092D94BF9A
:1075100030353735EDB2214604F801590BB1194623
:10752000EFE7FFF7B6FF0BB030BD10B522B9026828
:10753000C9B21268904710BDD2B2BDE81040FFF743
:10754000D6BFFFF7F2BF000007B5002100910A4641
:107550000B460348FFF764FF03B05DF804FB00BF70
:107560009019002007B5002100910A460B460348F8
:10757000FFF756FF03B05DF804FB00BF9819002029
:10758000014B587D704700BFA019002070470000D4
:1075900007B5002100910A460B460348FFF740FF5C
:1075A00003B05DF804FB00BFB819002007B5002147
:1075B00000910A460B460348FFF732FF03B05DF81F
:1075C00004FB00BFC419002010B5044600680BF08E
:1075D00003F8204610BD10B50446006808B10AF053
:1075E000FBFF00232360A360636010BD38B5044631
:1075F0000D46006801310BF09BFB10B184E82100BF
:10760000012038BD036810B5044613B143688B42AE
:1076100007D22046FFF7EAFF20B1A3680BB9226822
:107620001370012010BD70B50E4611460446154674
:10763000FFF7E8FF18B92046FFF7CDFF04E0A5608B
:10764000206831460BF0B8FD204670BD38B50023E8
:10765000044603604360836003730D4639B10846F6
:107660000BF008FE294602462046FFF7DCFF2046C5
:1076700038BD884210B50B46044607D0096819B1D9
:107680009A68FFF7D0FF01E0FFF7A5FF204610BD85
:1076900010B5002304460360436083600373FFF763
:1076A000E8FF204610BD38B505460C4641B10846F6
:1076B0000BF0E0FD214602462846FFF7B4FF01E04B
:1076C000FFF789FF284638BD826808B50B4612B916
:1076D00019B9012008BD11B90368187802E00068E3
:1076E000FEF718FAD0F1010038BF002008BD10B530
:1076F0008B688468E41AA2420CD8006868B10968F3
:1077000051B110441A460BF0E5FDD0F1010038BF2D
:10771000002010BD002010BD084610BD82688B6897
:107720009A4202D30022FFF7E2BF0020704783682D
:10773000994203D2006810B1405C70470020704746
:10774000FFF7F5BF9A422DE9F04107460D46144672
:107750001E4601D93446164638460C49FFF776FFD7
:10776000AB689C420FD89E4228BF1E462B68002261
:1077700013F806809A55296838462144FFF793FF8D
:107780002B6803F806803846BDE8F0813E610108A9
:1077900010B58B680446FFF7D5FF204610BD006882
:1077A00008B10AF0EDBD704707B5002100910A4607
:1077B0000B460348FFF734FE03B05DF804FB00BF3F
:1077C000CC19002007B5002100910A460B4603485A
:1077D000FFF726FE03B05DF804FB00BFD4190020BC
:1077E00007B5002100910A460B460348FFF718FE33
:1077F00003B05DF804FB00BFDC1900204FF0FF3040
:107800007047704708B52021034805F022FC00307E
:1078100018BF012008BD00BF0044004008B5024861
:1078200005F013FC08BD00BF0044004008B5054842
:1078300005F007FC0348802105F00BFC0028F9D077
:10784000012008BD00440040002242604FF47A72DB
:107850008260014A0260704718350108014B187CAC
:10786000704700BFE419002013B5084C00210091B7
:1078700004F114000A460B46FFF7D2FD04F11C0088
:1078800002B0BDE81040FFF7DFBF00BFE4190020E1
:1078900070474FF0FF307047FEF71ABE08B5FEF78D
:1078A00003FE08BD08B50846FEF732FE012008BDFC
:1078B000002242604FF47A728260014A026070478F
:1078C000383501080846FEF7D7BD000013B5074C50
:1078D0000021009120460A460B46FFF7A1FD04F166
:1078E000080002B0BDE81040FFF7E2BF101A002008
:1078F0000023036018467047002303601846704752
:1079000000230360184670472DE9F0410B7886B0DC
:10791000002B0C4614BF90464FF0000806460BF0B3
:10792000A9FC074620460BF0A5FC182301931E2353
:107930000125029302230393059000950494404689
:1079400031463A46002302F06DFF034B18705D701C
:1079500006B0BDE8F08100BF281A002048F20203FB
:10796000984210B51AD006DC992846D048F2010397
:1079700098420FD010BD48F2100398422CD048F224
:10798000800398423CD11F4B01229A70DA7000228A
:107990001A7110BD1B4B01225A7110BD194C63792D
:1079A00053B1194B00224FF47F401A7003F0CEFC04
:1079B000E72003F047FD06E0A37913B1013BA37173
:1079C00001E00123A37500236371E37523766376D9
:1079D000A376E376237710BD0A7D0A4B52B90122C4
:1079E0004FF47F40DA7503F0B1FCBDE81040E720AA
:1079F00003F028BD0022DA7510BD024B01225A7730
:107A000010BD00BF281A0020B81A00201FB54FF47F
:107A100061504FF461610A223C238DE80F006846F3
:107A200001A902AA03AB01F061FF05B05DF804FBF8
:107A30001FB50023009301930293039301A86946A5
:107A400002AA03AB01F018FF05B05DF804FB0000CB
:107A500030B5514D00249FB0FF20AC70EC706C70BD
:107A60006C71EC756C772C766C76AC76EC7603F0FA
:107A70006DFCE72003F0E6FC21462246204602F09A
:107A8000ADFE2B46012103F8074F0E200A4601F0F8
:107A9000B3FF6B79012B05D1642003F0FBFA01F0F1
:107AA00049FCF6E710210C2001F0F2FF3B4802F000
:107AB000AFFB3B4803F006F8012002F0E7FF684601
:107AC000384900F081FDAB786A78334C1A431AD1FB
:107AD000A37F002B55D0FF2002F08AFF002850D151
:107AE0001A24013C06D0E72003F0DAFC322003F030
:107AF000D1FAF6E70E20012122462B4BAC7101F0A2
:107B00007BFFAC77DFE7E72003F09CFCA31D0E2092
:107B10000121002201F042FFA37813B102F0F2FF2D
:107B200020702B7801210133AB7100221E4B0E20F7
:107B300001F062FF002001240146012202F04EFE06
:107B400021462246194B0E20EC7101F055FF02F040
:107B5000C9FD642003F09EFA002002F079FD48F28E
:107B60004420EC7702F060FF4FF47F4003F0EEFB1F
:107B7000E72003F067FCFFF749FF0023AB751FB058
:107B800030BDE72003F08CFCFA2003F083FA68464E
:107B900000F07EFD97E700BF281A0020503501084D
:107BA0009C010020097900082E1A00202F1A0020BD
:107BB000F0B5394C85B0206203F012FF03F052FE9D
:107BC000364B374A0093374B37490193374B384888
:107BD0000293384B00250393374B02F025FD6420B8
:107BE00003F058FA002002F033FD012348F244204C
:107BF000E576E37702F018FF304BA61D1A881F4682
:107C0000012A06D00E2010212A46334601F0C6FE76
:107C1000A0B1FF2002F0ECFE10210E2001F038FF91
:107C200000210025755401311029FAD10E202A4671
:107C3000234B01F0E1FE3D8004F020F82379164D3E
:107C400093B9AB7913B90123AB750DE0E87958B955
:107C50000146012202F0C2FD01212B4603F8071F55
:107C60000E200A4601F0C8FE237963B90A4B9B7DBA
:107C70004BB1144801F0F2FEFFF7DAFE05B0BDE8A3
:107C8000F040FFF7C3BE4FF47F4003F05FFBE720F7
:107C900003F0D8FBEDE700BF281A00201DB900084B
:107CA000F978000831B90008F17800089DB900089A
:107CB0005D790008C5B9000801790008EA020020D2
:107CC0002E1A00204C1A00202DE9F3419B4C94F809
:107CD0002630002B40F0AF8094F82730002B40F086
:107CE000AA80E37F03F0FF001BB902F0B1FC01237F
:107CF000E377A37D914E13B1FFF7AAFE07E0337936
:107D00002BB1F37D03F0FF05002B00F0C080E2787B
:107D10008A4B012A13D1DA7D012A10D15B79012B1C
:107D20000DD1032586480BF0A5FA013D82B28449A6
:107D3000012002F03FFC15F0FF05F3D1E57094F847
:107D400028307E4D43B92B7E002B40F0B7806B7EF0
:107D5000002B40F0B380EDE0EB7D93B395F8273036
:107D60007BBB2B7E002B00F0BA802AE02B4603F869
:107D7000092F0E200121032201F03EFE4FF6FF7075
:107D800003F0E4FAE72003F05DFBFEF791FF002823
:107D900080F2CE8094F82630684D002B40F0CA80E7
:107DA000FEF74EFF0028B4BF022303232B77237F67
:107DB0000E2063720121634B032201F01DFE00239C
:107DC0002376237E5D4D002B00F0B4806B7ECBB913
:107DD000FEF7FAFE002811D002DA4FF47F0007E028
:107DE000012801D1584803E0022803D14FF0FF10C9
:107DF00003F0ACFAE72003F025FB03E001236B76E8
:107E0000524B1860FEF7A4FE002840F09380504BC0
:107E10001B780BB103F0EAFA0023A376E3766376CE
:107E200023764A4B1B68002B00F08480434B0122D1
:107E300083F826207EE0E37F002B3FF45AAF444BCB
:107E40001B780BB103F0D2FA002528466571E57561
:107E500084F82650E57725766576A576E57625774C
:107E600003F0B0FD642003F015F9A37D3BB1284673
:107E700002F0EEFB314B0122DA77FFF7E9FD4FF418
:107E80007F4003F063FAE72003F0DCFA31E729468C
:107E90002A46284602F0A2FC2E480BF0EBF92E4FA2
:107EA000804638460BF0E6F900970190791F0320D1
:107EB00042462B4602F02CFC357128E7FEF7EAFE1D
:107EC00000234FF47F40A376E3766376237603F0B6
:107ED0003DFAE72002B0BDE8F04103F0B3BA6420F8
:107EE00003F0D8F805F1290001F046FD2B7F002BA7
:107EF0003FF444AF4FF47F0003F028FA237F0F4D87
:107F000003F0FF02002B3FF431AFE72003F09AFAB1
:107F10004FF4FA7003F0BEF8E72003F0A1FA4FF433
:107F2000FA7003F0B7F82B7F013BDBB22B77E5E764
:107F3000012345E702B0BDE8F08100BF281A002008
:107F40009F010020311A00200060FF009C0B0020E0
:107F5000B81A0020A6010020AB01002007B50021BF
:107F600000910A460B460348FFF75AFA03B05DF842
:107F700004FB00BF8C1A00207047FEE7FEE7FEE717
:107F8000FEE7704770477047FEF798B908B5024B97
:107F90000BB1AFF3008008BD0000000008B5024B34
:107FA0000BB1AFF3008008BD0000000008B5024B24
:107FB0000BB1FFF7BBF908BD2D73000808B5024BE4
:107FC0000BB1FFF7B4F908BD2F73000808B5024BD9
:107FD0000BB1FFF7DBFA08BD8D75000808B501206D
:107FE00004F0DEFB38B1012004F0E8FB024B13B1D2
:107FF0000020FFF7DFF908BDB573000808B50220BF
:1080000004F0CEFB38B1022004F0D8FB024B13B1D0
:108010000120FFF7CFF908BDB573000808B50420AB
:1080200004F0BEFB78B1042004F0C8FB0020064B2E
:108030000146188003F0BCFABDE80840034810214F
:10804000012204F0B6BF08BDCA1A0020002C01406E
:1080500008B5082004F0A4FB38B1082004F0AEFBFA
:10806000024B13B10320FFF7A5F908BDB573000853
:1080700008B5102004F094FB38B1102004F09EFBEA
:10808000024B13B10420FFF795F908BDB573000842
:1080900008B5202004F084FB38B1202004F08EFBCA
:1080A0000E4B13B10520FFF785F9402004F078FB53
:1080B00038B1402004F082FB084B13B10620FFF7D3
:1080C00079F9802004F06CFB38B1802004F076FB55
:1080D000024B13B10720FFF76DF908BDB573000817
:1080E00008B54FF4005004F05BFB40B14FF4005072
:1080F00004F064FB174B13B10D20FFF75BF94FF44D
:10810000804004F04DFB40B14FF4804004F056FB3A
:10811000104B13B10E20FFF74DF94FF4004004F05F
:108120003FFB40B14FF4004004F048FB094B13B152
:108130000F20FFF73FF94FF4006004F031FB38B136
:108140004FF4006004F03AFBBDE8084002F01EBFA7
:1081500008BD00BFB573000808B51048102104F031
:1081600061FFC8B10D48102104F067FF002003F043
:10817000CDFA30B90A4B1A8892B20A3292B21A80FA
:1081800008BD06481021002204F013FFBDE8084096
:108190000020012103F00CBA08BD00BF002C0140F3
:1081A000CA1A002008B5012004F034FD30B10120C6
:1081B00004F040FDBDE8084004F016BD08BD000015
:1081C00008B5022004F026FDB0B10C4B00224FF49C
:1081D00000301A7004F0F2FA012004F049FC10B1EA
:1081E000012004F04FFC04F0FFFC022004F022FD0B
:1081F000BDE8084004F0F8BC08BD00BF4F1A0020DD
:1082000002F056BE00F062B838B514490B78012B65
:1082100023D1134A13680BB90B7038BD114C402B96
:10822000206881B205D94030403B20601360402572
:1082300004E09DB203442360002313600A482A46E9
:108240000844C02105F0F6FB0120294605F0FAFCA0
:10825000BDE83840012005F05FBC38BDEC0C0020C3
:10826000F40C0020F00C0020EC0B002008B5094BAA
:1082700001221A70084B002203201A8005F012FD1B
:10828000064B024618804FF488710548BDE8084047
:1082900005F0E8BBA00B0020A40B0020A20B0020DF
:1082A000A60B0020074B1B68052B09D1064B1A684B
:1082B000511C052A196003D100221A60FEF73EB94D
:1082C000704700BFE81A0020941A002070B52B4DAB
:1082D0002B4C2B682B4E9BB2238022883388134073
:1082E000990508D54FF6FF532B60A3780133DBB215
:1082F000A370FFF7D7FF2288338813401A0401D5F3
:1083000005F0E2FA2288338813405B0505D54FF665
:10831000FF332B601C4B5B689847228833881A40D8
:10832000900444BF4DF6FF722A6022881340D9049E
:1083300005D54EF6FF732B60002003F0B7FF2288AF
:10834000338813401A050BD5104B1B7813B103F07B
:108350008DFF02E0022003F0A9FF4FF2FF732B60B4
:10836000228833881340DB0507D54FF6FF632B6067
:108370000720BDE8704003F099BF70BD445C004029
:10838000981A0020D0240020100200200C030020A6
:10839000034B9B7A13B1034B05221A60704700BF51
:1083A000AC240020E81A0020014B04221A60704718
:1083B000E81A0020034B1A78202A04BF00221A7002
:1083C000704700BF9C1A002070470000212810B59C
:1083D00008D1114B1B681B7803F07F03212B10D0B1
:1083E000022010BD2028FBD10B4B0C4A1B681B78C8
:1083F000107003F07F03212B094B18BF00230BB92A
:10840000EEE7084B044A0024126820469361548228
:108410009847204610BD00BFCC2400209C1A0020A5
:10842000758400085D840008074B1B681B7803F007
:108430007F03212B06D100F0DF00022814BF0220A9
:108440000020704702207047CC24002009B1022090
:1084500070470128FBD808467047000020B9034B3D
:1084600008221B681A82704701487047CC240020FC
:108470000802002020B9034B08221B681A827047AB
:1084800001487047CC2400200802002010B5FEF7F8
:10849000A1F8054B00241B689C7203F0CFFE05F089
:1084A00017FC024B1C6010BDCC240020E81A0020F1
:1084B000334B344A1B68D27910B500245A729C722F
:1084C000DC72204605F0E0FA20464FF4007105F01A
:1084D000E3FA2046102105F0EDFA2046402105F090
:1084E00085FB8021204605F071FB204605F03AFB14
:1084F000254B204693F8341005F0B2FB204605F0DA
:108500001EFB0120214605F0C7FA0120C02105F01D
:108510005DFB0120202105F0CDFA0120214605F068
:10852000E2FA02204FF4C06105F0B6FA02204FF4DF
:10853000807105F04BFB0220214605F0D4FA0220A1
:10854000202105F0B7FA0320214605F0A5FA032003
:108550004FF4887105F04AFB0320402105F080FBB1
:1085600003204FF4405105F0BEFA0320214605F0E8
:10857000A1FA204605F03CF9044B01221A6010BD17
:10858000CC240020BD35010808020020E81A002094
:10859000014904F029BF00BF40020020014904F056
:1085A00023BF00BF48020020054B1B68DB78042B6B
:1085B00004D8044901EBC30104F016BF0020704742
:1085C000CC2400205002002038B504460D46FFF7A9
:1085D0006FF9204625614FF41651FFF773F92046D5
:1085E00038BD000007B5002100910A460B4603483C
:1085F000FEF716FF03B05DF804FB00BFA01A0020D1
:1086000070B506460D46002428460AF033FE844223
:1086100008D2295D3046FFF745F9012002F03AFD06
:108620000134F1E770BD00002DE9F84304460F4620
:1086300090460D46C7EB05095FFA89F92046FFF71A
:108640002DF90028FADD2046FFF726F9C145C6B20C
:1086500006D100232B7020460C49FFF7D1FF0AE01A
:108660000D2EF6D00A2EF4D020463146FFF71AF927
:1086700005F8016BDEE72046FFF710F9002803DD5F
:108680002046FFF709F9F6E7BDE8F8833C610108E9
:10869000F0B585B00446FFF701F9002840F39D804E
:1086A0002046FFF7F9F8C0B2772868D104F1140624
:1086B00000212122304604F135050AF0CBFA41228F
:1086C000002128460AF0C6FA04F17607002384F850
:1086D0007630204642497B70FFF792FF20463146B4
:1086E0002022FFF7A1FF20463E49FFF789FF012224
:1086F00020463946FFF798FF94F87630A3F1300210
:10870000D2B2032AEFD8312B0BD120463649FFF7DE
:1087100077FF20463549FFF773FF20463449FFF7BE
:108720006FFF94F87620B2F1300708D02046314927
:10873000FFF766FF204629464022FFF775FF2046D7
:108740002D49FFF75DFF23693A4630462946984791
:1087500020462A49FFF754FF20462949FFF750FFDA
:1087600020462849FFF74CFF20462749FFF748FFDE
:1087700020462649FFF744FF2046254928E069287E
:108780002BD1244B01AD93E8070085E80700204674
:108790002149FFF735FF0026AF5D20463B0903F175
:1087A0003001392984BF03F15701C9B207F00F071F
:1087B000FFF778F807F13001392984BF5737F9B24C
:1087C00020460136FFF76EF80C2EE5D113492046FE
:1087D00005B0BDE8F040FFF713BF05B0F0BD00BF26
:1087E000905F0108975F0108C45F0108FA5F010804
:1087F000256001086B60010876600108B960010816
:10880000D96001080C6101083F6101087E6101081F
:10881000AF610108E8F7FF1FC56101083C6101086D
:1088200070470000054A8160826100220271027077
:108830000922427001228270C270704721880008AC
:108840000079704710B508460C46072100F0C9FBB7
:10885000E3791B1A5842584110BDF8B505468068A7
:108860000E46174600F03DFB0024A868314600F094
:1088700044FB60B1E3B2BB4205D128463146FFF765
:10888000E1FF00B1F8BD0134E3B2BB42EDD90020F5
:10889000F8BD70B504460E468068154600F056FADD
:1088A000A068314600F008FBBE210022A06800F05D
:1088B000D1FAA06800F0F0FA2870A06800F0ECFA95
:1088C0006870A06800F0E8FAA870A06800F0E4FA08
:1088D000E870A06800F0E0FA2871A06800F0DCFA07
:1088E0006871A06800F0D8FAA871A06800F0D4FA06
:1088F000E871A06800F0D0FA2872A068BDE8704066
:1089000000F024BA10B51446FFF7C3FF2046082133
:1089100000F067FB237A1B1A5842584110BD70B50E
:1089200004460E468068154600F010FAA0683146ED
:1089300000F0C2FAA0684E21002200F08BFAA06875
:10894000A978002200F086FAA068E978002200F0F9
:1089500081FA3378102B04D0A0682979002200F026
:1089600079FAA06800F0F2F9A0684821227800F0B6
:1089700071FA237813B10A20FEF762FCA068BDE803
:10898000704000F0E3B938B504460D46806800F049
:10899000DDF9A068294600F08FFAB4210022A06812
:1089A00000F058FAA06800F037FA0546A06800F019
:1089B000CDF9D5F1010038BF002038BD7FB5144690
:1089C00001AA06460D46FFF79DFFB8B12B78102B84
:1089D00013D00B2C07D00C2C03D00A2C05D13F232D
:1089E00004E07F2302E05F2300E01F233046294696
:1089F00001AA8DF80830FFF792FF012004B070BD86
:108A00001FB50B78102B17D001AAFFF77BFFA0B181
:108A10009DF808303F2B0BD002D81F2B0CD005E05F
:108A20005F2B07D07F2B01D10C2006E0002004E053
:108A30000A2002E00B2000E0092005B05DF804FBED
:108A400030B5044687B0806800F04BFA00232371EC
:108A5000A06801A900F051FA28B3204601A9FFF748
:108A6000F1FE0028F4D0237823B9204601A9FFF7AE
:108A70008AFFA8B9204601A903AAFFF70AFF2046EA
:108A800001A96578FFF7BCFF854201D9607803E052
:108A9000204601A9FFF7B4FF237960700133D6E7C0
:108AA00001232370E6E707B030BD1FB501AAFFF729
:108AB000F0FE9DF80400003018BF012005B05DF8FD
:108AC00004FB70B504460D4692B1C37883B10378B8
:108AD00073B9FEF7AFFB064620460021FFF7E5FF1E
:108AE00030B9FEF7A7FB40F2ED23801B9842F3D983
:108AF0002B780A2B05D00B2B05D0092B06D15E2035
:108B000006E0BC2004E040F2771001E040F2EE20E5
:108B1000BDE87040FEF794BB10B50446806800F0D5
:108B200015F9A06800F0D9F9A0684421227800F076
:108B300091F9A37833B12046611C0022BDE81040B2
:108B4000FFF7BFBF10BD0000F8B516463378527866
:108B500043EA02200A78222A27D0282A25D0102A80
:108B60004AD140F34E00FCF795FDFCF735FC00229E
:108B7000224BFCF7D1FAF7790446B0790D46381A42
:108B8000FCF788FD06463846FCF780FD0146304676
:108B9000FCF788FEFCF720FC02460B4620462946DF
:108BA000FCF7BCFAFCF76CFCF8BD32793F2A1CD00C
:108BB00008D81F2A20D140F3CC00FCF76BFD4FF002
:108BC0007C510FE05F2A07D07F2A15D100B2FCF755
:108BD00061FD4FF0765105E040F34E00FCF75AFD81
:108BE0004FF07851FCF7AAFDF8BD40F38D00FCF77B
:108BF00051FD4FF07A51F5E70020F8BD0000D03F5D
:108C000030B585B001AA05460C46FFF77BFE28B1BA
:108C10002846214601AAFFF797FF00E0014805B06A
:108C200030BD00BF0000FEC20078704707B50021CC
:108C300000910A460B460348FEF7F2FB03B05DF8CD
:108C400004FB00BFA81A002038B504460D460846AC
:108C50000121FEF7B3F82580204638BD0388034A7A
:108C60001B01D118D3588A885A61704748000020E8
:108C7000F7B50288124B120199189C58114A054603
:108C800094428F881E4608BF042003D00E4B9C429E
:108C900003D10820012103F037FF10238DF807309E
:108CA00003238DF806302B88ADF8047006EB03160D
:108CB0000023B373204601A903F000FE03B0F0BD0A
:108CC0004800002000080140000C01400388034ACE
:108CD0001B01D118D3588A881A61704748000020B8
:108CE000F7B50288114B120199189C58104A054695
:108CF00094428F881E4608BF042003D00D4B9C422F
:108D000003D10820012103F0FFFE04238DF8073072
:108D10002B88ADF8047006EB03160123B3732046CD
:108D200001A903F0CBFD03B0F0BD00BF4800002057
:108D300000080140000C01400388034A1B01D118C0
:108D4000D058898803F008BE4800002038B5044692
:108D5000FEF708FB2046FFF7C3FFFEF719FB7D2552
:108D6000013D15F0FF052AD00220FEF76BFA2046E0
:108D7000FFF7E2FF0028F3D0FEF7F4FA2046FFF7F2
:108D80006DFF2046FFF774FFFEF702FB4FF4F07013
:108D9000FEF758FAFEF7E6FA2046FFF7A1FF462055
:108DA000FEF750FA2046FFF7C7FFD0F1010538BFA4
:108DB0000025FEF7EDFA4FF4CD70FEF743FA284692
:108DC00038BDCB0710B5044611D5FEF7CBFA2046C7
:108DD000FFF744FF2046FFF74BFF0A20FEF732FA69
:108DE0002046FFF773FFFEF7D3FA372010E0FEF7B7
:108DF000B9FA2046FFF732FF2046FFF739FF41203E
:108E0000FEF720FA2046FFF761FFFEF7C1FA0520C2
:108E1000BDE81040FEF716BA10B50446FEF7A2FAF8
:108E20002046FFF725FF2046FFF718FF0320FEF737
:108E300009FA2046FFF754FF0A20FEF703FA2046FE
:108E4000FFF77AFF0446FEF7A3FA3520FEF7FAF99A
:108E5000204610BD2DE9F0410446884617460825F6
:108E6000012616EA080F0CBF002101212046FFF75A
:108E7000A8FF7600013DF6B2F3D15FB9FEF772FAB2
:108E80002046FFF72DFF2046FFF7E8FEBDE8F04142
:108E9000FEF77EBABDE8F081F8B507460825002444
:108EA00001263846FFF7B8FF00B134437600013D94
:108EB000F6B2F6D12046F8BD70B500220D46552118
:108EC0000646FFF7C7FF0024295D30460022013423
:108ED000FFF7C0FF082CF7D170BDCC210022FFF7AF
:108EE000B9BF002383720373C3720723C218002122
:108EF00091700BB1013BF9E770472DE9F047057B15
:108F000004468946002D59D1FFF720FF20B9A072F1
:108F10002073E072BDE8F0872A462046F021FFF773
:108F200099FF0126A846AA4635462046FFF774FF5A
:108F300007462046FFF770FF012F02D1012815D107
:108F400032E0874204EB080318D1A27A954205D299
:108F50009A7816420CBF0027012702E014BF0027B1
:108F600001271FB9082D08D8E57206E004EB0803B5
:108F70009A78012732439A7004E0AA469A7822EA46
:108F800006029A70204639467600FFF71AFF01352F
:108F900016F0FF06EDB204D108F101085FFA88F877
:108FA0000126B8F1070FC0D9402D07D984F80AA0CF
:108FB000BAF1000F10D1012323730DE00020A0723D
:108FC0002073E0720023E218927809F8032001333D
:108FD000082BF8D1BDE8F087A378002BEED0012054
:108FE000F0E7002370B505461846DAB2914215D075
:108FF000EA5C082482EA000616F0010F4FEA5000EE
:1090000018BF80F08C0004F1FF3418BFC0B214F018
:10901000FF044FEA5202EDD10133E6E770BD0000D4
:1090200007B5002100910A460B460348FEF7F8F900
:1090300003B05DF804FB00BFB01A0020002100F06F
:1090400004B80D4B5B58435004310C480C4B42188C
:109050009A42FFF4F6AF0B4A00F003B8002342F83F
:10906000043B094B9A42FFF4F9AF03F06DF8FDF7AA
:10907000D5FAFDF7B3F870474C63010800000020F3
:10908000500B0020500B0020DC240020FFF7FEBF17
:1090900073B544790023022C01930FD0032C19D00F
:1090A000012C2BD1164D2B692E4623B12B6901A81B
:1090B00098470246B8B9B16801201BE0104DEB6833
:1090C0002E4623B1EB6801A89847024658B9B1680B
:1090D00002200FE00A4D6B692E464BB16B6901A867
:1090E0009847024620B1A9682046BDF8043003E045
:1090F000B16803200022134600F05AFB02B070BD95
:10910000181C0020072810B50BD8012909D8012404
:10911000844001FA00F0034B1A6822EA0402024379
:109120001A6010BD9802002070B5012186B0054676
:1091300004F0ECFD430404462AD5B0F5824F27D154
:109140002846052104F0E2FD05EB8000EE1D002419
:10915000C51DAE4206D03046022104F0D7FD0436CC
:109160000444F6E7724B1A8E92B2224492B21A86E7
:10917000DA6B1444DC63D96B9A6B914240F0CA807D
:1091800093F84020002A00F0C5809B69992031E0C7
:1091900024F4FF4020F07F0080B2002800F0978088
:1091A00048F210039C4228D00CD8B4F5004F40F28E
:1091B000BC8048F202039C4215D948F204039C4249
:1091C00011D0B2E048F280039C420CD004D848F29F
:1091D00040039C424FD0A8E0B4F5024F03D0B4F551
:1091E000084F6BD0A1E0524B9A69002A00F09280A0
:1091F0009B69204600210A4667E00023EA1852795D
:109200000DF803200133042BF8D16B7A05F10D0022
:109210008DF80430AB7A8DF80530EB7A8DF8063096
:109220002B7B8DF80730002300AA1A44C15C013360
:10923000042B1172F8D105F11100002300AA1A4481
:10924000C15C0133042B1173F8D105F11500002323
:1092500000AA1A44C15C0133042B1174F8D12B7994
:109260008DF81430324B9A69002A53D09B692046FE
:109270006946152229E005350021284604F04DFDF8
:1092800004210090284604F048FD0821019028465A
:1092900004F043FD0C210290284604F03EFD10210D
:1092A0000390284604F039FD214B04909A69002A66
:1092B00030D09B6920466946142206E01C4B9A690F
:1092C00042B39B692046691D0122984722E041F282
:1092D00003039C4205D0A4F580530E3B9BB2012BA7
:1092E0001AD86C1D2046042104F017FD39301CD11A
:1092F0002A790F4B00212046DA6204F00EFD04218A
:109300000546204604F009FD393003D128460121E5
:10931000FFF7F8FE012009E0054B1B889BB29C4239
:1093200004D0B4F5805FF5D100E0002006B070BD38
:10933000181C002038B50A4C63889BB20BB900207A
:1093400038BD60680378042BF9D1FFF7EDFE0128E2
:109350000546F4D10023638001F05AFC284638BD4D
:10936000181C00202DE9F84F044689469246002536
:10937000DFF87483B8F802309BB2002BF8D0D8F82D
:1093800004603378042B40F073813046012104F0EF
:10939000BDFC05463046FFF7C7FE002840F05F8160
:1093A00041F207039D4206F1050755D841F2060335
:1093B0009D4280F0AE8040F202239D4200F0A980E1
:1093C00014D80C2D09D8082D80F0A380002D00F0B2
:1093D0004681062D00F2E1809BE00D2D00F0968085
:1093E00040F201239D4200F0918038E141F20203F6
:1093F0009D4218D8B5F5805F00F28B80B5F5017FEE
:1094000040F2848040F207239D4240F02881337966
:10941000384604F8013B002104F07FFC0146204659
:1094200004F066FC1BE141F204039D4200F08B80D6
:1094300040F2A1800021384604F06FFC0421206036
:10944000384604F06AFC083444F8040C06F10D03B5
:10945000224606F11D016FE041F211039D4255D0F5
:109460002BD841F20B039D4253D01CD841F2090383
:109470009D424ED000F28C800021384604F04DFC15
:1094800004212060384604F048FC0821606038461A
:1094900004F043FC0C21A060384604F03EFC04F1CB
:1094A0000C0BE060DAE041F20F039D4263D036D846
:1094B00041F20D039D4246D0D1E042F206039D42A7
:1094C00024D00BD8B5F5005F40F2C98042F2040306
:1094D0009D4288BF002300F2848017E042F2080317
:1094E0009D42C0F0BC8042F209039D420ED944F275
:1094F0000B039D4240F0B380737938460121A8F8F0
:10950000303004F003FCA8F83200A8E0337923706F
:10951000A5E03846002104F000FC20609FE0002117
:10952000384604F0FAFBA3464BF8040B04213846F6
:1095300004F0F3FB606091E053F8040B8B4242F8B7
:10954000040BF9D18BE00021384604F0E6FB04213E
:109550002060384604F0E1FB08216060384604F0E2
:10956000DCFBE36804F1080B3933A06076D10121FC
:10957000FFF7C8FD72E00021384604F0CEFB04215D
:109580002060384604F0C9FB083444F8040C66E057
:10959000337923713B68236061E00021384604F091
:1095A000BCFB04212060384604F0B7FB0821606052
:1095B000384604F0ABFB0A21A060384604F0A6FB55
:1095C0000C3444F8020C06F11103224606F1350171
:1095D00053F8040B8B4242F8040BF9D11B8813801B
:1095E0003DE0F2185279E2540133042BF9D106F12F
:1095F00009000023C15CE2180133042B1171F9D179
:1096000006F10D000023C15CE2180133042B117236
:10961000F9D106F111000023C15CE2180133042BDB
:109620001173F9D106F115000023C15CE218013372
:10963000042B1174F9D106F119000023C15CE21862
:109640000133062B1175F9D106F11F000023C15C0F
:10965000E2180133202B9176F9D100E05C46B8F88E
:1096600000309BB29D4223D11F4B00221A801FE085
:1096700030460321B77804F049FB8346B9F1000F67
:109680000CD00421701D04F048FB0246CAF800000B
:1096900006F115014846D2B2FCF7C6F9791D2046FD
:1096A0003144C7EB0B02FCF7BFF90023A8F83630B2
:1096B0000023A8F8023001F0ABFA3378042B05D16F
:1096C000B5F5805F02D13046FFF7E2FCB8F8003014
:1096D0009BB2002B7FF44CAE034BD88E80B2002897
:1096E0007FF446AEBDE8F88F181C002007284FF025
:1096F000010308D803FA00F0044B1A6810420CBFAB
:109700000020012070471846704700BF98020020D3
:10971000034B1880084600210A46FFF723BE00BF0E
:10972000181C002010B5034B0124DC86BDE8104056
:10973000FFF718BE181C002038B503461546012255
:109740004A710C46881D194604F0DBFA291D057084
:10975000204601F01FFB002038BD38B5BDF814507D
:109760000C462B44D518ADB202216171A071E27193
:10977000294604F1080004F0C4FA691D204689B2A4
:1097800001F008FB002038BD38B513440C469DB2EB
:1097900002216171A0712946E27104F1080004F010
:1097A000B0FA691D204689B2BDE8384001F0F2BA2E
:1097B0002DE9F84F1C4604F1020B032301F10709C0
:1097C0001FFA8BFB88710D464B7148465946164669
:1097D00004F097FAB4F57A7F824605F10B0812D8A7
:1097E000214604F08EFA2146504604F08AFA3146AA
:1097F00040462246FCF718F9A11D284689B2BDE86B
:10980000F84F01F0C7BA4FF47A77B4FBF7F30BEBDC
:10981000430189B204F075FA3946504604F071FAF2
:10982000314640463A46FCF7FFF8A4F57A742846DC
:1098300040F2EE31A4B23E4401F0ACFAB4F57A7FC6
:1098400084BFA4F57A74A7B2A84688BF4FF47A748F
:10985000314628F8054F4846224698BF0027FCF7B6
:10986000E3F8A11C404689B2264401F093FA0FB1F7
:109870003C46E3E7BDE8F88FF7B51E46FF238DF8B9
:109880000730194B00259C68475D63190135042D8D
:109890005F72F9D100200D5C2318013004285D733C
:1098A000F9D10021505C6318013104295874F9D1B1
:1098B00004F11500002104F01BFA0022B35C83546C
:1098C0000132042AFAD12146142242F20100FFF7A4
:1098D00033FF42F201000DF10701FFF719FF9DF977
:1098E000070003B0F0BD00BF181C00202DE9F341B4
:1098F0001F46FF238DF807301E4B0646D3F808801D
:1099000033680C46013B122B9CBF142333600B6859
:1099100008F10900013B122B9CBF14230B60136854
:109920001546013B122B9CBF142313603B68013B7F
:10993000122B9CBF14233B60316804F0D9F92168D5
:1099400004F0D6F9296804F0D3F9396804F0D0F9A5
:109950004146142242F20900FFF7EEFE42F20900EE
:109960000DF10701FFF7D4FE9DF9070002B0BDE835
:10997000F08100BF181C002010B5074B0446996801
:1099800042F205000022FFF7D7FE214642F2050011
:10999000BDE81040FFF7BCBE181C00202DE9F341C4
:1099A0001F4602ACFF2304F8013D124B86469D681A
:1099B0000E4605F109007146904604F099F93146CA
:1099C00004F096F9414604F093F929460C2240F23E
:1099D0000120FFF7B1FE214640F20120FFF798FE7B
:1099E000002138460A46FFF79DFE9DF8070002B0A9
:1099F000BDE8F081181C00202DE9F341984602AD26
:109A00004FF0FF3345F8043D134B86469E680C46E5
:109A100006F10A007146174604F06AF90C2104F0B9
:109A200067F9214604F064F9394604F061F94146CA
:109A3000224606F11A00FBF7F7FF31461022A3B2C7
:109A40009020FFF7A1FE40F202202946FFF760FEBA
:109A5000019802B0BDE8F081181C002013B50B4B33
:109A600004469968002240F20720FFF765FE40F2A5
:109A700007206946FFF74CFE9DF803309DF8000073
:109A800023709DF80430637002B010BD181C0020D4
:109A900037B50E4A034694680D4604F1090019468D
:109AA00004F026F9294604F023F92146082240F261
:109AB0000320FFF741FE40F203200DF10601FFF7FE
:109AC00027FEBDF8060003B030BD00BF181C002003
:109AD0002DE9F0430023CA5CC2540133102BFAD1A4
:109AE0000022344B467B991891F801800178847BE1
:109AF00088EA01089919C97A90F80CC088EA010827
:109B00001919CF7A417880F810804F40C17B477493
:109B10005D1895F80B908578634489EA050593F8FC
:109B20000B90C378FFB289EA030390F80490857420
:109B300088EA090890F80590EDB287EA090790F8DD
:109B40000690C37485EA090590F80790DBB283EAB2
:109B5000090390F8089080F814805FFA88F888EA82
:109B6000090890F809904775FFB287EA090790F84D
:109B70000A908575EDB285EA090590F80B90C375DA
:109B8000DBB283EA0903013288EA0C0C7E406C40A8
:109B900059400A2A80F8188047768576C37680F87F
:109BA0001CC046778477C17700F1100099D1BDE8D9
:109BB000F08300BF1236010810F0800F4FEA40001A
:109BC00018BF80F01B00C0B2704700002DE9F04FB5
:109BD00091F8A03090F800A042788AEA030A80F851
:109BE00000A091F8A13097B053404370827807935A
:109BF00091F8A23090F8049053408370C278059396
:109C000091F8A33046795340C370069391F8A4307D
:109C1000827989EA030980F8049091F8A53090F8D8
:109C200008805E40467191F8A630477A53408371B0
:109C3000C279089391F8A73004465340C3710C933E
:109C400091F8A8304FF0000B88EA030880F80880EC
:109C500091F8A9305F404772827A91F8AA30534058
:109C600083720993C07A91F8AB3094F80CC04340EA
:109C7000E3720D9391F8AC3094F80DE08CEA030C8C
:109C800084F80CC091F8AD30A57B8EEA030E84F801
:109C90000DE091F8AE30E27B5D40A57391F8AF30F6
:109CA0005A40464BE2739A449AF80B0191F890A0FF
:109CB000994480EA0A00207099F80BA191F89490D9
:109CC00098448AEA090984F8049098F80B9191F86D
:109CD00098809C4489EA080884F808809CF80B81E5
:109CE00091F89CC09E4488EA0C0C84F80CC09EF845
:109CF0000BC191F891E01F448CEA0E0E97F80BC14E
:109D000091F89D701E448CEA0707677396F80B71F3
:109D100091F899601D447E406672079E0D981E441E
:109D200096F80B7191F8956084F801E07E406671B9
:109D3000059E18441E4496F80B7191F89A6077407E
:109D4000089E1E4496F80BE191F89E608EEA060686
:109D5000DDF824E09E449EF80BC191F892E08CEA75
:109D60000E0E84F802E095F80BE191F89650A77278
:109D70008EEA0505A571069DA6731D4495F80B6135
:109D800091F89F5075400C9E1E4496F80B7191F807
:109D9000936013447E40E67090F80B6191F8970051
:109DA0007040E07193F80B2191F89B30CDF81CB016
:109DB0005340E573E3720D4602E000BF123601081E
:109DC000A77894F80090103D87EA0900FFF7F4FEA9
:109DD000FFF7F2FEE67894F801B0824686EA0B00BF
:109DE000FFF7EAFEFFF7E8FE2179A37980EA06088B
:109DF00080EA0B0B83EA010003910293FFF7DCFE7C
:109E0000FFF7DAFE8AEA0909E6798AEA070A67793A
:109E1000024686EA07000492FFF7CEFEFFF7CCFE6B
:109E2000049A029B03995340DBB294F808C006934E
:109E3000A37A51404640C9B24740F6B283EA0C00CB
:109E40000293CDF804C005910896FFF7B5FEFFF721
:109E5000B3FE617AE67A024686EA01000391049233
:109E6000FFF7AAFEFFF7A8FE049ADDF804C00399E5
:109E7000029B82EA0C0C53404140C9B25FFA8CFC51
:109E8000DBB20A91CDF824C00B9394F80CC0A37BED
:109E90004640F6B283EA0C000293CDF804C00C965B
:109EA000FFF78AFEFFF788FE617BE67B024686EAC3
:109EB000010003910492FFF77FFEFFF77DFE049AF5
:109EC000029BDDF804C00399534082EA0C0C5FFA50
:109ED00089F95FFA8BFB5FFA8AFA5FFA88F84140EA
:109EE000DBB24640C9B28BEA09005FFA8CFC0F93E3
:109EF000F6B288EA0A030E910293CDF834C01096A8
:109F000083EA0006FFF758FE89EA000086EA000CA3
:109F10005FFA8CFC84F800C08AEA0B00CDF804C01C
:109F2000FFF74AFE8BEA0000029B86EA000B5FFA0D
:109F30008BFB184684F801B0CDF844B0FFF73CFE27
:109F40008AEA000086EA000A5FFA8AFA88EA0900CB
:109F500084F802A0CDF848A0FFF72EFE88EA0000A2
:109F6000059BDDF818B0DDF820A04640FFB2F6B240
:109F700087EA03008AEA0B08E670139688EA00066F
:109F8000FFF71AFE059948407040C0B21490207146
:109F90008BEA0700FFF710FE784086EA0007FFB261
:109FA000677140461597FFF707FE8BEA0000059A98
:109FB0007040C0B20690A0718AEA0200FFF7FCFD73
:109FC0008AEA00000B990A9BDDF824A0DDF830B086
:109FD0004640F6B283EA0A000596E6718BEA01066E
:109FE00086EA0007FFF7E8FD8AEA00000A9B0B9A61
:109FF00087EA00085FFA88F882EA030084F808809C
:10A00000FFF7DAFDDDF828A08AEA000087EA0009F8
:10A010005FFA89F9304684F80990FFF7CDFDDDF845
:10A020002CB00C998BEA0000099A87EA000B5FFAC2
:10A030008BFB81EA020084F80AB0FFF7BDFD0C9BA0
:10A040000D99DDF838A05840109A47408AEA01007F
:10A05000DDF83CA0FFB282EA0A03E77283EA000A55
:10A060000293FFF7A9FD0D990F9A48408AEA00066E
:10A070000E99F6B282EA01002673FFF79DFD0E9A53
:10A08000029B50408AEA0001C9B2617318460391ED
:10A09000FFF792FD0F9BDDF834E058408AEA00029A
:10A0A000109BD2B2A27383EA0E000492FFF784FDE4
:10A0B000109BDDF804C058408AEA000A494B5FFA59
:10A0C0008AFA84F80FA003EB0C0090F80BC195F806
:10A0D00090001E448CEA0000207014981F4418441D
:10A0E00090F80BC195F894008CEA0000207103EB06
:10A0F000080090F80BC195F898008CEA00002072D7
:10A1000095F89C0096F80B610399704020731944F0
:10A1100091F80B0195F89110049A414003EB090066
:10A1200090F80B6195F89D001A4470406073159883
:10A13000184490F80B6195F899007040607211987E
:10A14000184490F80B6195F8950061701299704071
:10A150006071194491F80B0195F89A1048400699DE
:10A16000194491F80B6195F89E10714003EB0B06B2
:10A1700096F80BC195F892608CEA0606A67092F8E4
:10A180000B6195F89620A0727240139EA1731E4435
:10A1900096F80B11A271059E95F89F201E4496F823
:10A1A0000B014A4095F8931053444140E17095F8F3
:10A1B000971097F80B01DDF81CA04140E17193F86E
:10A1C0000B1195F89B30AAF1100A4B401AF1900F31
:10A1D000E372E273CDF81CA07FF4F2AD17B0BDE8D6
:10A1E000F08F00BF1236010838B5054C05462046F1
:10A1F000FFF76EFC28462146BDE83840FFF7E6BC75
:10A20000241B0020034610210C200022FFF7C6BBB0
:10A21000034610210C200022FFF7EEBB38B505469F
:10A220000E4CE36A4BB108F0AFF8E36A0360002319
:10A23000E36208F0A9F8006838BD2846FFF756FA2F
:10A2400048B9228E92B2002AEAD0228E92B2013A06
:10A2500092B2228638BD4FF0FF3038BD181C002066
:10A26000F7B5174602AC4FF0FF3244F8042D124AFE
:10A27000034695680E4605F10900194603F038FDBE
:10A28000314603F035FD394603F032FD0C222946F4
:10A2900041F20100FFF750FA214641F20100FFF7B9
:10A2A00037FA08F071F8019B002103601846FEF7A9
:10A2B00029FF019803B0F0BD181C002073B54FF0C2
:10A2C000FF3302AC44F8043D0E4B05469E68294618
:10A2D00006F1090003F00CFD0422314641F20B00A7
:10A2E000FFF72AFA214641F20B00FFF711FA08F0B6
:10A2F0004BF8019B012103602846FEF703FF0198FC
:10A3000002B070BD181C002037B54FF0FF3201922B
:10A31000134A034694680D4604F10900194603F0F8
:10A32000E7FC082103F0E4FC082103F0E1FC002332
:10A33000EA5CC2540133082BFAD11422214641F2BF
:10A340000700FFF7F9F901A941F20700FFF7E0F96B
:10A3500008F01AF8019B0360184603B030BD00BF37
:10A36000181C00202DE9FF411D46314B8646D3F8CD
:10A3700008800F4608F10900714616460A9C03F052
:10A38000B7FC142103F0B4FC142103F0B1FC142138
:10A3900003F0AEFC142103F0ABFCD4F1010138BF93
:10A3A000002103F0A5FC0FB1396800E0394603F045
:10A3B0009FFC0EB1316800E0314603F099FC0DB10D
:10A3C000296800E0294603F093FC74B1216839B98B
:10A3D000636841F287329342DCBF41F288336360A5
:10A3E00003F086FC616803F083FC41462C2241F2B5
:10A3F0000800FFF7A1F941F208006946FFF788F964
:10A40000009B002B09DB0FB1019838600EB1029858
:10A4100030604DB10398286006E007F0B5FF009B5F
:10A4200003604FF0FF3000E0184604B0BDE8F08153
:10A43000181C00202DE9FF419846154B07469D68E2
:10A4400014460E4605F10900394603F051FC214639
:10A4500003F04EFC414603F04BFCBDF8304029466A
:10A460000C222046FFF768F9204601A9FFF750F9B2
:10A47000029B002B04DD30460A990B9AFFF752F934
:10A4800007F082FF029B0360184604B0BDE8F0812C
:10A49000181C00201FB500240094019441F204040C
:10A4A0000294FFF7C7FF04B010BD00002DE9F04F84
:10A4B00089B0039114469B46139E149D0290FFF7AA
:10A4C000ADFEDDF808C0002858D12E4B812D9A6BC7
:10A4D00002F101029A63D3F8089009F10A0307D048
:10A4E000832D0AD104F1080A09F12208182704E093
:10A4F00009F11A081027064612906146184603F023
:10A50000F7FB391F03F0F4FB214603F0F1FB59463A
:10A5100003F0EEFB832D05D1514603F0E9FB082142
:10A5200003F0E6FB4346C8EB030109B2A14204DA9B
:10A53000039A515C03F8011BF5E7832D18460ED0F2
:10A54000129BB6B200930196E8B249463A46A3B2CE
:10A55000FFF703F9832D0BD141F20F000AE0191A1E
:10A5600009B2B142ECDA129A515C03F8011BF6E72A
:10A5700041F2030005A9FFF7CBF8204609B0BDE87A
:10A58000F08F00BF181C00201FB500240094019418
:10A5900081240294FFF78AFF04B010BD1FB5069C0A
:10A5A0000094079C019483240294FFF77FFF04B07A
:10A5B00010BD0000202A73B503460E46144624D869
:10A5C000144A1946956805F1090003F091FB08212A
:10A5D00003F08EFB214603F08BFB03461A1A12B2DE
:10A5E000A24203DAB25C03F8012BF7E704F10C0294
:10A5F0002946D2B241F21100FFF79EF841F2110054
:10A6000001A9FFF785F8019801E04FF0FF3002B093
:10A6100070BD00BF181C0020024B01225A805860F8
:10A62000FEF788BE181C002010B5084CE1602261BE
:10A630006361029BE361039B2362049B6362059B4E
:10A64000A3620123A06184F8403010BD181C0020D3
:10A6500070B5214C0023A363E363238023866386C4
:10A66000A386E386E362638063601C4B05461C4857
:10A67000A36000F0ABFAE3699847A36A064601209D
:10A68000984706B3E36998470028FBD1002DA168DD
:10A6900014BF022300234B7201224FF48040FFF7C6
:10A6A0004BF84FF480400021FFF732F8A16844F2E4
:10A6B0000B000022FFF740F8BDE8704044F20B00A9
:10A6C0000021FFF725B8E36998470028FBD0E3692C
:10A6D00098470028FBD1D9E7181C0020801C0020D7
:10A6E00019A6000838B5094C0020A36A98472546EA
:10A6F000EB69064C98470028FAD0A3680BB10023F9
:10A70000A360BDE8384000F075BA00BF181C0020F7
:10A710002DE9F04F994685B04FF0FF3301932E4B52
:10A720001546D3F808A00024834688460AF109009C
:10A730001C210F9E0E9F0294ADF80C4003F0D8FA36
:10A74000294603F0D5FA594603F0D2FA05F1100173
:10A7500003F0CEFA314603F0CBFA214603F0D1FAEA
:10A76000B9F1000F08D019F8043003550134062C54
:10A77000F9D10630034607E04B4602AA9A5CC25460
:10A780000133062BF9D1F4E71A1A12B2AA4204DAFD
:10A7900018F8022003F8012BF6E7194646B13FB13D
:10A7A0005A1A12B2B24203DABA5C03F8012BF7E785
:10A7B0001C367219D2B251460120FEF7BDFF01A925
:10A7C0000120FEF7A5FF07F0DFFD019B036018469F
:10A7D00005B0BDE8F08F00BF181C0020F7B5174684
:10A7E00002AC4FF0FF3244F8042D0D4A0346956841
:10A7F0000E4605F10900194603F07AFA314603F0D6
:10A8000077FA394603F074FA29460C220420FEF741
:10A8100093FF04202146FEF77BFF019803B0F0BDB3
:10A82000181C00202DE9F04F144685B0002202923A
:10A83000ADF80C206D4A8046D2F808A00F460AF108
:10A84000090041469B460F9D139E03F051FAB8F153
:10A85000030F00F2BD80DFE808F0022C75751421AB
:10A8600003F046FA214603F043FA002103F049FAC7
:10A87000BBF1000F07D000221BF8021081540132F7
:10A88000062AF9D106E05B4602AA9A5CC25401335B
:10A89000062BF9D106300E9903F02AFA03461A1A4C
:10A8A00012B2A24203D2BA5C03F8012BF7E71834C4
:10A8B0008CE0202103F01CFA214603F019FA002154
:10A8C00003F01FFABBF1000F07D000221BF80210A3
:10A8D00081540132062AF9D106E05B4602AA9A5C4D
:10A8E000C2540133062BF9D10E99063003F000FA59
:10A8F00004F10C0103F0FCF9294603F0F9F9109971
:10A9000003F0F6F903461A1A12B2A24203D2BA5C55
:10A9100003F8012BF7E7129804211A46D61A36B22B
:10A92000AE4203D2865D02F8016BF7E70139284495
:10A9300001D01346F1E704EB850909F124091FFA58
:10A9400089F945E0282103F0D3F9214603F0D0F935
:10A95000002103F0D6F9BBF1000F07D000221BF84D
:10A96000021081540132062AF9D106E05B4602AAA0
:10A970009A5CC2540133062BF9D10E99063003F0CC
:10A98000B7F9294603F0B4F9109903F0B1F9119918
:10A9900003F0AEF904F1080103F0AAF9314603F01F
:10A9A000A7F903461A1A12B2A24203D2BA5C03F8FC
:10A9B000012BF7E719465A1A12B2B24204D2129882
:10A9C000825C03F8012BF6E72C3634441FFA84F935
:10A9D00051465FFA89F20520FEF7AEFE052001A977
:10A9E000FEF796FE019805B0BDE8F08F181C002018
:10A9F00037B50C4B01469D6802AC05F1090003F028
:10AA000077F94FF0FF3344F8043D2946042206202D
:10AA1000FEF792FE06202146FEF77AFE019803B06B
:10AA200030BD00BF181C002037B548F2080248F2BC
:10AA3000080102408A42034613490BD10020934289
:10AA400081F840001ED023F4004323F0080343F4B0
:10AA5000004302E0012281F840208D684FF0FF3270
:10AA6000194602AC05F1090044F8042D03F040F941
:10AA7000294604220820FEF75FFE08202146FEF743
:10AA800047FE019803B030BD181C002073B50C4B75
:10AA900001469D684FF0FF3602AC05F109000196B2
:10AAA00003F026F944F8046D294604220A20FEF733
:10AAB00043FE0A202146FEF72BFE019802B070BD2E
:10AAC000181C002013B50E4A4FF0FF330193916814
:10AAD00098B154230370437083700022845C8B18F8
